:100000000C942A000C9447000C9447000C94470071
:100010000C9447000C9447000C9447000C94470044
:100020000C9447000C9447000C94E9020C94470090
:100030000C9447000C9447000C9447000C94470024
:100040000C9447000C9447000C9447000C94470014
:100050000C94470011241FBECFE5D8E0DEBFCDBF12
:1000600010E0A0E6B0E0E4EFF6E002C005900D92EB
:10007000AA36B107D9F710E0AAE6B0E001C01D9298
:10008000AD36B107E1F70E94A8020C9478030C94F6
:100090000000823451F1833420F4813409F07BC0B4
:1000A00007C0833409F43EC0843409F074C057C0DB
:1000B000413069F42AB381E090E0AC0102C0440F02
:1000C000551F6A95E2F7BA01622B6ABB08952AB3FD
:1000D00081E090E0AC0102C0440F551F6A95E2F741
:1000E000BA01609562236ABB0895413069F427B371
:1000F00081E090E0AC0102C0440F551F6A95E2F721
:10010000BA01622B67BB089527B381E090E0AC0190
:1001100002C0440F551F6A95E2F7BA016095622349
:1001200067BB0895413069F424B381E090E0AC01ED
:1001300002C0440F551F6A95E2F7BA01622B64BBF7
:10014000089524B381E090E0AC0102C0440F551F34
:100150006A95E2F7BA016095622364BB0895413065
:1001600069F421B381E090E0AC0102C0440F551F57
:100170006A95E2F7BA01622B61BB089521B381E071
:1001800090E0AC0102C0440F551F6A95E2F7BA0136
:100190006095622361BB0895823451F1833420F469
:1001A000813409F07BC007C0833409F43EC0843435
:1001B00009F074C057C0413069F42BB381E090E07E
:1001C000AC0102C0440F551F6A95E2F7BA01622BD9
:1001D0006BBB08952BB381E090E0AC0102C0440FEB
:1001E000551F6A95E2F7BA01609562236BBB0895CB
:1001F000413069F428B381E090E0AC0102C0440FC3
:10020000551F6A95E2F7BA01622B68BB089528B3BF
:1002100081E090E0AC0102C0440F551F6A95E2F7FF
:10022000BA016095622368BB0895413069F425B333
:1002300081E090E0AC0102C0440F551F6A95E2F7DF
:10024000BA01622B65BB089525B381E090E0AC0153
:1002500002C0440F551F6A95E2F7BA016095622308
:1002600065BB0895413069F422B381E090E0AC01B0
:1002700002C0440F551F6A95E2F7BA01622B62BBB8
:10028000089522B381E090E0AC0102C0440F551FF5
:100290006A95E2F7BA016095622362BB08958234E1
:1002A000F1F0833420F4813409F04FC006C0833468
:1002B00041F1843409F049C036C029B381E090E0AF
:1002C000062E02C0880F991F0A94E2F730E08223BD
:1002D000932302C0959587956A95E2F7089526B312
:1002E00081E090E0062E02C0880F991F0A94E2F781
:1002F00030E08223932302C0959587956A95E2F7B3
:10030000089523B381E090E0062E02C0880F991F64
:100310000A94E2F730E08223932302C095958795F3
:100320006A95E2F7089520B381E090E0062E02C0BE
:10033000880F991F0A94E2F730E08223932302C0CA
:10034000959587956A95E2F7089580E0089582343F
:10035000B9F0833418F48134C9F505C08334E9F069
:100360008434A1F527C02BB381E090E0AC0102C03A
:10037000440F551F6A95E2F7BA0162276BBB0895D7
:1003800028B381E090E0AC0102C0440F551F6A958C
:10039000E2F7BA01622768BB089525B381E090E0D7
:1003A000AC0102C0440F551F6A95E2F7BA016227FB
:1003B00065BB089522B381E090E0AC0102C0440F18
:1003C000551F6A95E2F7BA01622762BB089582342D
:1003D00061F0833418F4813469F405C0833439F052
:1003E000843441F406C06ABB089567BB089564BBBA
:1003F000089561BB0895823461F0833418F4813428
:1004000069F405C0833439F0843441F406C06BBB11
:10041000089568BB089565BB089562BB0895823452
:1004200061F0833418F4813471F405C0833439F0F9
:10043000843449F406C089B3089586B3089583B31C
:10044000089580B3089580E00895823451F1833493
:1004500020F4813409F07BC007C0833409F43EC026
:10046000843409F074C057C0413069F42BB381E083
:1004700090E0AC0102C0440F551F6A95E2F7BA0143
:10048000622B6BBB08952BB381E090E0AC0102C0FE
:10049000440F551F6A95E2F7BA01609562236BBB62
:1004A0000895413069F428B381E090E0AC0102C0C6
:1004B000440F551F6A95E2F7BA01622B68BB089595
:1004C00028B381E090E0AC0102C0440F551F6A954B
:1004D000E2F7BA016095622368BB0895413069F480
:1004E00025B381E090E0AC0102C0440F551F6A952E
:1004F000E2F7BA01622B65BB089525B381E090E075
:10050000AC0102C0440F551F6A95E2F7BA0160952D
:10051000622365BB0895413069F422B381E090E025
:10052000AC0102C0440F551F6A95E2F7BA01622B75
:1005300062BB089522B381E090E0AC0102C0440F99
:10054000551F6A95E2F7BA016095622362BB089570
:1005500084E40E94FD020E942303D098D19A8091E6
:100560006B006AE00E946C0384E4692F0E9401031F
:1005700080916A00882331F410926A0080916A00A9
:100580008823D1F3D198D09A80916B006AE00E94C1
:100590006C03682F84E40E94010380916A00882321
:1005A00031F410926A0080916A008823D1F380911F
:1005B0006C00843658F010926C0080916B008F5F55
:1005C00080936B00853111F410926B0080E090E015
:1005D00008951F920F920FB60F9211248F9380915E
:1005E0006C008F5F80936C0081E080936A008F9134
:1005F0000F900FBE0F901F9018956FEF0E94E701AC
:100600000895CF93DF93CDB7DEB72A970FB6F8944E
:10061000DEBF0FBECDBFDE011196E0E6F0E09AE04E
:1006200001900D929150E1F7FE01E60FF11D6181FD
:100630000E94FB012A960FB6F894DEBF0FBECDBF15
:10064000DF91CF91089583B7886083BF80E58CBF29
:1006500083B7816083BF83B7846083BF789489B791
:10066000826089BF0895BB9A83B7886083BF80E4A6
:100670008CBF83B7816083BF83B7846083BF83B738
:10068000806183BF0895BB9A83B7806483BF83B7BB
:10069000886083BF80E48CBF83B7816083BF83B7EA
:1006A000846083BF83B7806183BF83B7806283BF69
:1006B0000895BB9A83B7806483BF80E48CBF83B7FF
:1006C000816083BF83B7846083BF83B7806183BF4A
:1006D00083B7806283BF0895991B79E004C0991F96
:1006E000961708F0961B881F7A95C9F7809508958C
:0406F000F894FFCFAC
:0A06F4003F065B4F666D7D477F6F88
:00000001FF
