S010000074686520736166652E7372656314
S11300000C942A000C9447000C9447000C9447006D
S11300100C9447000C9447000C9447000C94470040
S11300200C9447000C9447000C9447000C94470030
S11300300C9447000C9447000C9447000C94470020
S11300400C9447000C9447000C9447000C94470010
S11300500C94470011241FBECFE5D8E0DEBFCDBF0E
S113006010E0A0E6B0E0E8EDFAE002C005900D92E1
S1130070A43CB107D9F710E0A4ECB0E001C01D9294
S1130080A83CB107E1F70E9475040C946A050C942E
S11300900000823451F1833420F4813409F07BC0B0
S11300A007C0833409F43EC0843409F074C057C0D7
S11300B0413069F42AB381E090E0AC0102C0440FFE
S11300C0551F6A95E2F7BA01622B6ABB08952AB3F9
S11300D081E090E0AC0102C0440F551F6A95E2F73D
S11300E0BA01609562236ABB0895413069F427B36D
S11300F081E090E0AC0102C0440F551F6A95E2F71D
S1130100BA01622B67BB089527B381E090E0AC018C
S113011002C0440F551F6A95E2F7BA016095622345
S113012067BB0895413069F424B381E090E0AC01E9
S113013002C0440F551F6A95E2F7BA01622B64BBF3
S1130140089524B381E090E0AC0102C0440F551F30
S11301506A95E2F7BA016095622364BB0895413061
S113016069F421B381E090E0AC0102C0440F551F53
S11301706A95E2F7BA01622B61BB089521B381E06D
S113018090E0AC0102C0440F551F6A95E2F7BA0132
S11301906095622361BB0895823451F1833420F465
S11301A0813409F07BC007C0833409F43EC0843431
S11301B009F074C057C0413069F42BB381E090E07A
S11301C0AC0102C0440F551F6A95E2F7BA01622BD5
S11301D06BBB08952BB381E090E0AC0102C0440FE7
S11301E0551F6A95E2F7BA01609562236BBB0895C7
S11301F0413069F428B381E090E0AC0102C0440FBF
S1130200551F6A95E2F7BA01622B68BB089528B3BB
S113021081E090E0AC0102C0440F551F6A95E2F7FB
S1130220BA016095622368BB0895413069F425B32F
S113023081E090E0AC0102C0440F551F6A95E2F7DB
S1130240BA01622B65BB089525B381E090E0AC014F
S113025002C0440F551F6A95E2F7BA016095622304
S113026065BB0895413069F422B381E090E0AC01AC
S113027002C0440F551F6A95E2F7BA01622B62BBB4
S1130280089522B381E090E0AC0102C0440F551FF1
S11302906A95E2F7BA016095622362BB08958234DD
S11302A0F1F0833420F4813409F04FC006C0833464
S11302B041F1843409F049C036C029B381E090E0AB
S11302C0062E02C0880F991F0A94E2F730E08223B9
S11302D0932302C0959587956A95E2F7089526B30E
S11302E081E090E0062E02C0880F991F0A94E2F77D
S11302F030E08223932302C0959587956A95E2F7AF
S1130300089523B381E090E0062E02C0880F991F60
S11303100A94E2F730E08223932302C095958795EF
S11303206A95E2F7089520B381E090E0062E02C0BA
S1130330880F991F0A94E2F730E08223932302C0C6
S1130340959587956A95E2F7089580E0089582343B
S1130350B9F0833418F48134C9F505C08334E9F065
S11303608434A1F527C02BB381E090E0AC0102C036
S1130370440F551F6A95E2F7BA0162276BBB0895D3
S113038028B381E090E0AC0102C0440F551F6A9588
S1130390E2F7BA01622768BB089525B381E090E0D3
S11303A0AC0102C0440F551F6A95E2F7BA016227F7
S11303B065BB089522B381E090E0AC0102C0440F14
S11303C0551F6A95E2F7BA01622762BB0895823429
S11303D061F0833418F4813469F405C0833439F04E
S11303E0843441F406C06ABB089567BB089564BBB6
S11303F0089561BB0895823461F0833418F4813424
S113040069F405C0833439F0843441F406C06BBB0D
S1130410089568BB089565BB089562BB089582344E
S113042061F0833418F4813471F405C0833439F0F5
S1130430843449F406C089B3089586B3089583B318
S1130440089580B3089580E00895823451F183348F
S113045020F4813409F07BC007C0833409F43EC022
S1130460843409F074C057C0413069F42BB381E07F
S113047090E0AC0102C0440F551F6A95E2F7BA013F
S1130480622B6BBB08952BB381E090E0AC0102C0FA
S1130490440F551F6A95E2F7BA01609562236BBB5E
S11304A00895413069F428B381E090E0AC0102C0C2
S11304B0440F551F6A95E2F7BA01622B68BB089591
S11304C028B381E090E0AC0102C0440F551F6A9547
S11304D0E2F7BA016095622368BB0895413069F47C
S11304E025B381E090E0AC0102C0440F551F6A952A
S11304F0E2F7BA01622B65BB089525B381E090E071
S1130500AC0102C0440F551F6A95E2F7BA01609529
S1130510622365BB0895413069F422B381E090E021
S1130520AC0102C0440F551F6A95E2F7BA01622B71
S113053062BB089522B381E090E0AC0102C0440F95
S1130540551F6A95E2F7BA016095622362BB08956C
S11305506F70823481F0833418F48134F1F405C06F
S1130560833479F08434C9F412C08BB3807F8BBB9D
S11305708BB3862B8BBB88B3807F88BB88B3862BD9
S113058088BB85B3807F85BB85B3862B85BB82B34F
S1130590807F82BB82B3682B62BB08956295607FC3
S11305A0823481F0833418F48134F1F405C0833447
S11305B079F08434C9F412C08BB38F708BBB8BB3C6
S11305C0862B8BBB88B38F7088BB88B3862B88BB84
S11305D085B38F7085BB85B3862B85BB82B38F7043
S11305E082BB82B3682B62BB08958EBB9FBB6DBB7D
S11305F0E29AE19AE199FECF08958EBB9FBBE09AFF
S11306008DB3089584E460E041E00E94490084E4ED
S113061061E041E00E94490084E462E041E00E941C
S1130620490084E463E041E00E94490084E464E01A
S113063040E00E94490084E465E040E00E944900F3
S113064084E466E040E00E94490084E467E040E01E
S11306500E94490084E464E041E00E94250284E4AD
S113066065E041E00E94250284E466E041E00E94E6
S1130670250284E467E041E00E94250208950F9377
S11306801F93CF93DF93CDB7DEB760970FB6F8947F
S1130690DEBF0FBECDBFDE011196E0E6F0E080E1E3
S11306A001900D928150E1F700E084E460E041E0C4
S11306B00E94CC0084E461E041E00E94CC0084E428
S11306C062E041E00E94CC0084E463E041E00E94E7
S11306D0CC0084E4602F40E00E94CC0010E0612F45
S11306E06C5F84E40E944F01882361F4E02FF0E002
S11306F0EE0FFF1FEE0FFF1FE10FF11DEC0FFD1FAB
S1130700818104C01F5F143051F70BC060960FB68F
S1130710F894DEBF0FBECDBFDF91CF911F910F9133
S113072008950F5F043009F68FEFF0CF82E460E0A4
S113073041E00E94CC008FE99FE00197F1F700C0EF
S1130740000082E460E040E00E94CC008FE99FE07A
S11307500197F1F700C000000895682F81E40E941A
S1130760FB0182E461E040E00E94CC000E94960319
S11307708FEC97E00197F1F700C0000008958FEF28
S113078091EEA4E081509040A040E1F700C0000049
S113079081E460E041E00E94490081E461E041E0DD
S11307A00E94490081E462E041E00E94490081E442
S11307B063E041E00E94490081E464E041E00E947A
S11307C0490081E465E041E00E94490081E466E07B
S11307D041E00E94490081E467E041E00E94490051
S11307E082E460E041E00E94490082E462E041E08A
S11307F00E94490082E461E041E00E94490082E4F1
S113080062E040E00E94CC0088E30E94AD03AFECBC
S1130810B7E01197F1F700C000008EE00E94AD032D
S11308208FEC97E00197F1F700C0000081E00E948F
S1130830AD03AFE1BEE41197F1F700C0000086E01C
S11308400E94AD038FEC97E00197F1F700C0000020
S11308500895682F81E40E94FB0182E461E041E095
S11308600E94CC000E9496038FEC97E00197F1F769
S113087000C000000895CF93DF93EC0188818823A2
S113088031F021960E94290489918823D9F7DF91B8
S1130890CF91089581E00E94AD038FE19EE401971A
S11308A0F1F700C000000895282F2150223070F481
S11308B0613170F4662371F0813019F4962F9158E8
S11308C00AC0823041F4962F915405C090E803C0C9
S11308D090E801C090E8892F0E94AD038FEC97E067
S11308E00197F1F700C0000008951092C70010921C
S11308F0C6001092C5001092C4000E9402030E9418
S1130900BF030F2EF3E0EF2EF02DFF240F2EF0E7A0
S11309104F2EF0E05F2EF02D0F2EF4ECAF2EF0E012
S1130920BF2EF02D0F2EFAE78F2EF0E09F2EF02D24
S11309307A2C6B2C0F2EF8EA2F2EF0E03F2EF02DA0
S113094080E290E00E94FD028F3F59F5C2010E94AF
S11309503B0401E210E00E943F03C82F8F3FD9F30C
S11309600E9429048FEF99E6A8E181509040A040AD
S1130970E1F700C00000602F675181E00E94540439
S11309808AE20E942904C8016C2F0E94F5020F5FBD
S11309901F4F05321105F9F680E290E060E00E94F5
S11309A0F502FF2069F602C0EC2E07C00CE00F2E02
S11309B0FDE9CF2EF0E0DF2EF02D0E944A04C401A1
S11309C00E943B04C72DD62D102F0E943F0388831D
S11309D08F3FD9F30E9429048FEF99E6A8E1815053
S11309E09040A040E1F700C0000081E0612F0E9428
S11309F054048AE20E9429041F5F2196103129F7CA
S1130A0081E290E00E94FD02D5019C91891759F57D
S1130A1082E290E00E94FD02E5ECF0E0908189170B
S1130A2011F583E290E00E94FD02A6ECB0E09C91F7
S1130A308917C9F484E290E00E94FD02E7ECF0E03B
S1130A409081891781F40E944A0486E890E00E940C
S1130A503B0482E061E00E94540481E990E00E943A
S1130A603B04CE2D33C0CE2DC15011F10E944A0457
S1130A7081E061E00E945404C6010E943B0482E0CC
S1130A8061E00E945404C1010E943B048E2D815DEB
S1130A900E9429048FEF99E6A8E181509040A0407C
S1130AA0E1F700C00000FF2009F47ECFEC2E48CF10
S1130AB00E944A048DE990E00E943B0482E061E0D8
S1130AC00E94540484EB90E00E943B04EC2EFF242B
S10B0AD0F39436CFF894FFCF34
S1130AD83738392F3435362A3132332D41303D2BCE
S1130AE873657420706173733A00636865636B207F
S1130AF8706173733A007269676874207061737304
S1130B080073616665206F70656E65640077726F47
S1130B186E672070617373007472696573206C6505
S1130B2866743D00746865207361666520636C6F44
S1070B387365640079
S9030000FC
