S00B000045564D2E7372656331
S11300000C942A000C9447000C9447000C9447006D
S11300100C9447000C9447000C9447000C94470040
S11300200C9447000C9447000C9447000C94470030
S11300300C9447000C9447000C9447000C94470020
S11300400C9447000C9447000C9447000C94470010
S11300500C94470011241FBECFE5D8E0DEBFCDBF0E
S113006010E0A0E6B0E0E6E2FAE002C005900D92EE
S1130070A037B107D9F710E0A0E7B0E001C01D92A6
S1130080A437B107E1F70E942C020C9411050C94DB
S1130090000040E00E94500008950E945601089517
S11300A0823451F1833420F4813409F07BC007C0D9
S11300B0833409F43EC0843409F074C057C041301D
S11300C069F42AB381E090E0AC0102C0440F551FEB
S11300D06A95E2F7BA01622B6ABB08952AB381E0FC
S11300E090E0AC0102C0440F551F6A95E2F7BA01D3
S11300F0609562236ABB0895413069F427B381E0B7
S113010090E0AC0102C0440F551F6A95E2F7BA01B2
S1130110622B67BB089527B381E090E0AC0102C075
S1130120440F551F6A95E2F7BA016095622367BBD5
S11301300895413069F424B381E090E0AC0102C039
S1130140440F551F6A95E2F7BA01622B64BB089508
S113015024B381E090E0AC0102C0440F551F6A95BE
S1130160E2F7BA016095622364BB0895413069F4F3
S113017021B381E090E0AC0102C0440F551F6A95A1
S1130180E2F7BA01622B61BB089521B381E090E0EC
S1130190AC0102C0440F551F6A95E2F7BA0160959D
S11301A0622361BB0895823451F1833420F4813495
S11301B009F07BC007C0833409F43EC0843409F0DD
S11301C074C057C0413069F42BB381E090E0AC01B6
S11301D002C0440F551F6A95E2F7BA01622B6BBB4C
S11301E008952BB381E090E0AC0102C0440F551F89
S11301F06A95E2F7BA01609562236BBB08954130BA
S113020069F428B381E090E0AC0102C0440F551FAB
S11302106A95E2F7BA01622B68BB089528B381E0BE
S113022090E0AC0102C0440F551F6A95E2F7BA0191
S11302306095622368BB0895413069F425B381E079
S113024090E0AC0102C0440F551F6A95E2F7BA0171
S1130250622B65BB089525B381E090E0AC0102C038
S1130260440F551F6A95E2F7BA016095622365BB96
S11302700895413069F422B381E090E0AC0102C0FA
S1130280440F551F6A95E2F7BA01622B62BB0895C9
S113029022B381E090E0AC0102C0440F551F6A957F
S11302A0E2F7BA016095622362BB08958234F1F0EB
S11302B0833420F4813409F04FC006C0833441F103
S11302C0843409F049C036C029B381E090E0062E99
S11302D002C0880F991F0A94E2F730E08223932327
S11302E002C0959587956A95E2F7089526B381E053
S11302F090E0062E02C0880F991F0A94E2F730E0BE
S11303008223932302C0959587956A95E2F7089511
S113031023B381E090E0062E02C0880F991F0A944F
S1130320E2F730E08223932302C0959587956A957E
S1130330E2F7089520B381E090E0062E02C0880F12
S1130340991F0A94E2F730E08223932302C0959523
S113035087956A95E2F7089580E008958234B9F0AC
S1130360833418F48134C9F505C08334E9F0843446
S1130370A1F527C02BB381E090E0AC0102C0440F8B
S1130380551F6A95E2F7BA0162276BBB089528B33B
S113039081E090E0AC0102C0440F551F6A95E2F77A
S11303A0BA01622768BB089525B381E090E0AC01EF
S11303B002C0440F551F6A95E2F7BA01622765BB74
S11303C0089522B381E090E0AC0102C0440F551FB0
S11303D06A95E2F7BA01622762BB0895823461F03C
S11303E0833418F4813469F405C0833439F08434D7
S11303F041F406C06ABB089567BB089564BB0895C1
S113040061BB0895823461F0833418F4813469F453
S113041005C0833439F0843441F406C06BBB0895BD
S113042068BB089565BB089562BB0895823461F08A
S1130430833418F4813471F405C0833439F084347E
S113044049F406C089B3089586B3089583B3089523
S113045080B3089580E008950E944F0482E463E02D
S11304600E94490082E464E00E94490082E465E05D
S11304700E94490082E466E00E94490082E467E049
S11304800E94490081E061E00E94E40480E690E07B
S11304900E94CB0481E06AE00E94E40484E690E0D8
S11304A00E94CB0482E061E00E94E40488E690E0CC
S11304B00E94CB0482E06AE00E94E4048CE690E0AF
S11304C00E94CB0400E610E00F2EF4E6EF2EF0E0DD
S11304D0FF2EF02D0F2EF8E6CF2EF0E0DF2EF02DBC
S11304E00F2EFCE6AF2EF0E0BF2EF02DD4E682E412
S11304F063E00E944D00813009F058C08091730080
S11305008F5F809373008A3050F481E063E00E942F
S1130510E40480917300805D0E94B9048DC1843627
S1130520D8F481E063E00E94E40480917300CAE09F
S11305306C2F0E940505805D0E94B90481E064E08F
S11305400E94E404809173006C2F0E940505892F9A
S1130550805D0E94B90470C181E063E00E94E404FC
S1130560809173006D2F0E940505805D0E94B9047F
S113057081E064E00E94E40480917300CAE06C2F7F
S11305800E9405050E940505892F805D0E94B9041B
S113059081E065E00E94E404809173006C2F0E9466
S11305A00505892F805D0E94B90446C182E464E098
S11305B00E944D00813009F058C0809172008F5F15
S11305C0809372008A3050F481E06CE00E94E4046D
S11305D080917200805D0E94B9042EC18436D8F4E3
S11305E081E06CE00E94E40480917200CAE06C2F08
S11305F00E940505805D0E94B90481E06DE00E94BF
S1130600E404809172006C2F0E940505892F805D9F
S11306100E94B90411C181E06CE00E94E40480915D
S113062072006D2F0E940505805D0E94B90481E06F
S11306306DE00E94E40480917200CAE06C2F0E9475
S113064005050E940505892F805D0E94B90481E09B
S11306506EE00E94E404809172006C2F0E940505F4
S1130660892F805D0E94B904E7C082E465E00E949E
S11306704D00813009F058C0809171008F5F8093E4
S113068071008A3050F482E063E00E94E4048091B7
S11306907100805D0E94B904CFC08436D8F482E032
S11306A063E00E94E40480917100CAE06C2F0E9410
S11306B00505805D0E94B90482E064E00E94E404C0
S11306C0809171006C2F0E940505892F805D0E9426
S11306D0B904B2C082E063E00E94E4048091710036
S11306E06D2F0E940505805D0E94B90482E064E0DC
S11306F00E94E40480917100CAE06C2F0E940505F9
S11307000E940505892F805D0E94B90482E065E09E
S11307100E94E404809171006C2F0E940505892FCA
S1130720805D0E94B90488C082E466E00E944D00A6
S1130730882309F458C0809170008F5F8093700003
S11307408A3050F482E06CE00E94E40480917000EE
S1130750805D0E94B90470C08436D8F482E06CE0F5
S11307600E94E40480917000CAE06C2F0E94050589
S1130770805D0E94B90482E06DE00E94E4048091EF
S113078070006C2F0E940505892F805D0E94B904BA
S113079053C082E06CE00E94E404809170006D2FED
S11307A00E940505805D0E94B90482E06DE00E940C
S11307B0E40480917000CAE06C2F0E9405050E9439
S11307C00505892F805D0E94B90482E06EE00E94D5
S11307D0E404809170006C2F0E940505892F805DD0
S11307E00E94B90429C082E467E00E944D00813070
S11307F019F510927000109271001092720010920C
S1130800730061E00E94E404C8010E94CB0481E00B
S11308106AE00E94E404C7010E94CB0482E061E024
S11308200E94E404C6010E94CB0482E06AE00E94B4
S1130830E404C5010E94CB048FE79AE1A6E081504D
S11308409040A040E1F700C0000051CE82E460E097
S113085041E00E94D3008FE99FE00197F1F700C0C7
S1130860000082E460E040E00E94D3008FE99FE052
S11308700197F1F700C000000895682F81E40E94F9
S1130880020282E461E040E00E94D3000E94260458
S11308908FEC97E00197F1F700C0000008958FEF07
S11308A091EEA4E081509040A040E1F700C0000028
S11308B081E460E041E00E94500081E461E041E0B5
S11308C00E94500081E462E041E00E94500081E413
S11308D063E041E00E94500081E464E041E00E9452
S11308E0500081E465E041E00E94500081E466E04C
S11308F041E00E94500081E467E041E00E94500022
S113090082E460E041E00E94500082E462E041E061
S11309100E94500082E461E041E00E94500082E4C1
S113092062E040E00E94D30088E30E943D04AFEC03
S1130930B7E01197F1F700C000008CE00E943D047D
S11309408FEC97E00197F1F700C0000081E00E946E
S11309503D04AFE1BEE41197F1F700C0000086E06A
S11309600E943D048FEC97E00197F1F700C000006E
S11309700895682F81E40E94020282E461E041E06C
S11309800E94D3000E9426048FEC97E00197F1F7B0
S113099000C000000895CF93DF93EC018881882381
S11309A031F021960E94B90489918823D9F7DF9107
S11309B0CF91089581E00E943D048FE19EE4019768
S11309C0F1F700C000000895282F2150223070F460
S11309D0613170F4662371F0813019F4962F9158C7
S11309E00AC0823041F4962F915405C090E803C0A8
S11309F090E801C090E8892F0E943D048FEC97E0B5
S1130A000197F1F700C000000895991B79E004C034
S1130A10991F961708F0961B881F7A95C9F7809539
S1090A200895F894FFCFD5
S1130A26413D3000423D3000433D3000443D3000FE
S9030000FC
