S00C000067616D652E737265637E
S11300000C942A000C9447000C9447000C9447006D
S11300100C9447000C9447000C9447000C94470040
S11300200C9447000C9447000C9443030C94470031
S11300300C9447000C9447000C9447000C94470020
S11300400C9447000C9447000C9447000C94470010
S11300500C94470011241FBECFE5D8E0DEBFCDBF0E
S113006010E0A0E6B0E0EEE4FAE002C005900D92E4
S1130070AC39B107D9F710E0ACE9B0E001C01D928A
S1130080A03AB107E1F70E94F5020C9425050C94FF
S11300900000823451F1833420F4813409F07BC0B0
S11300A007C0833409F43EC0843409F074C057C0D7
S11300B0413069F42AB381E090E0AC0102C0440FFE
S11300C0551F6A95E2F7BA01622B6ABB08952AB3F9
S11300D081E090E0AC0102C0440F551F6A95E2F73D
S11300E0BA01609562236ABB0895413069F427B36D
S11300F081E090E0AC0102C0440F551F6A95E2F71D
S1130100BA01622B67BB089527B381E090E0AC018C
S113011002C0440F551F6A95E2F7BA016095622345
S113012067BB0895413069F424B381E090E0AC01E9
S113013002C0440F551F6A95E2F7BA01622B64BBF3
S1130140089524B381E090E0AC0102C0440F551F30
S11301506A95E2F7BA016095622364BB0895413061
S113016069F421B381E090E0AC0102C0440F551F53
S11301706A95E2F7BA01622B61BB089521B381E06D
S113018090E0AC0102C0440F551F6A95E2F7BA0132
S11301906095622361BB0895823451F1833420F465
S11301A0813409F07BC007C0833409F43EC0843431
S11301B009F074C057C0413069F42BB381E090E07A
S11301C0AC0102C0440F551F6A95E2F7BA01622BD5
S11301D06BBB08952BB381E090E0AC0102C0440FE7
S11301E0551F6A95E2F7BA01609562236BBB0895C7
S11301F0413069F428B381E090E0AC0102C0440FBF
S1130200551F6A95E2F7BA01622B68BB089528B3BB
S113021081E090E0AC0102C0440F551F6A95E2F7FB
S1130220BA016095622368BB0895413069F425B32F
S113023081E090E0AC0102C0440F551F6A95E2F7DB
S1130240BA01622B65BB089525B381E090E0AC014F
S113025002C0440F551F6A95E2F7BA016095622304
S113026065BB0895413069F422B381E090E0AC01AC
S113027002C0440F551F6A95E2F7BA01622B62BBB4
S1130280089522B381E090E0AC0102C0440F551FF1
S11302906A95E2F7BA016095622362BB08958234DD
S11302A0F1F0833420F4813409F04FC006C0833464
S11302B041F1843409F049C036C029B381E090E0AB
S11302C0062E02C0880F991F0A94E2F730E08223B9
S11302D0932302C0959587956A95E2F7089526B30E
S11302E081E090E0062E02C0880F991F0A94E2F77D
S11302F030E08223932302C0959587956A95E2F7AF
S1130300089523B381E090E0062E02C0880F991F60
S11303100A94E2F730E08223932302C095958795EF
S11303206A95E2F7089520B381E090E0062E02C0BA
S1130330880F991F0A94E2F730E08223932302C0C6
S1130340959587956A95E2F7089580E0089582343B
S1130350B9F0833418F48134C9F505C08334E9F065
S11303608434A1F527C02BB381E090E0AC0102C036
S1130370440F551F6A95E2F7BA0162276BBB0895D3
S113038028B381E090E0AC0102C0440F551F6A9588
S1130390E2F7BA01622768BB089525B381E090E0D3
S11303A0AC0102C0440F551F6A95E2F7BA016227F7
S11303B065BB089522B381E090E0AC0102C0440F14
S11303C0551F6A95E2F7BA01622762BB0895823429
S11303D061F0833418F4813469F405C0833439F04E
S11303E0843441F406C06ABB089567BB089564BBB6
S11303F0089561BB0895823461F0833418F4813424
S113040069F405C0833439F0843441F406C06BBB0D
S1130410089568BB089565BB089562BB089582344E
S113042061F0833418F4813471F405C0833439F0F5
S1130430843449F406C089B3089586B3089583B318
S1130440089580B3089580E00895823451F183348F
S113045020F4813409F07BC007C0833409F43EC022
S1130460843409F074C057C0413069F42BB381E07F
S113047090E0AC0102C0440F551F6A95E2F7BA013F
S1130480622B6BBB08952BB381E090E0AC0102C0FA
S1130490440F551F6A95E2F7BA01609562236BBB5E
S11304A00895413069F428B381E090E0AC0102C0C2
S11304B0440F551F6A95E2F7BA01622B68BB089591
S11304C028B381E090E0AC0102C0440F551F6A9547
S11304D0E2F7BA016095622368BB0895413069F47C
S11304E025B381E090E0AC0102C0440F551F6A952A
S11304F0E2F7BA01622B65BB089525B381E090E071
S1130500AC0102C0440F551F6A95E2F7BA01609529
S1130510622365BB0895413069F422B381E090E021
S1130520AC0102C0440F551F6A95E2F7BA01622B71
S113053062BB089522B381E090E0AC0102C0440F95
S1130540551F6A95E2F7BA016095622362BB08956C
S11305506F70823481F0833418F48134F1F405C06F
S1130560833479F08434C9F412C08BB3807F8BBB9D
S11305708BB3862B8BBB88B3807F88BB88B3862BD9
S113058088BB85B3807F85BB85B3862B85BB82B34F
S1130590807F82BB82B3682B62BB08956295607FC3
S11305A0823481F0833418F48134F1F405C0833447
S11305B079F08434C9F412C08BB38F708BBB8BB3C6
S11305C0862B8BBB88B38F7088BB88B3862B88BB84
S11305D085B38F7085BB85B3862B85BB82B38F7043
S11305E082BB82B3682B62BB0895CF93DF930E94D2
S11305F05A030E94270480E690E00E94A8040E9407
S1130600E204C1E0D0E080919E0090919F0023E03D
S1130610883E920724F0D0939D00C0939C000E94D2
S1130620970390E08F3F910589F480919C0090910D
S11306309D00009741F30E94B70482E064E00E94A9
S1130640C10486E690E00E94A80418C08533910591
S113065059F40E94B70482E064E00E94C10484E774
S113066090E00E94A8040AC00E94B70482E063E0FC
S11306700E94C1048EE790E00E94A80480E090E00C
S1130680DF91CF9108951F920F920FB60F9211240C
S11306908F939F9380919E0090919F0001969093D9
S11306A09F0080939E009F918F910F900FBE0F909B
S11306B01F90189581E460E041E00E94490081E4C4
S11306C061E041E00E94490081E462E041E00E946F
S11306D0490081E463E041E00E94490081E464E070
S11306E040E00E94490081E465E040E00E94490046
S11306F081E466E040E00E94490081E467E040E074
S11307000E94490081E464E041E00E94250281E402
S113071065E041E00E94250281E466E041E00E9438
S1130720250281E467E041E00E94250208950F93C9
S11307301F93CF93DF93CDB7DEB760970FB6F894CE
S1130740DEBF0FBECDBFDE011196EBE8F0E080E125
S113075001900D928150E1F700E081E460E041E016
S11307600E94CC0081E461E041E00E94CC0081E47D
S113077062E041E00E94CC0081E463E041E00E9439
S1130780CC0081E4602F40E00E94CC0010E0612F97
S11307906C5F81E40E944F01882361F4E02FF0E054
S11307A0EE0FFF1FEE0FFF1FE10FF11DEC0FFD1FFA
S11307B0818104C01F5F143051F70BC060960FB6DF
S11307C0F894DEBF0FBECDBFDF91CF911F910F9183
S11307D008950F5F043009F68FEFF0CF82E462E0F2
S11307E041E00E94CC008FE99FE00197F1F700C03F
S11307F0000082E462E040E00E94CC008FE99FE0C8
S11308000197F1F700C000000895CF93C82F682F17
S113081062956F7082E40E94CE0282E460E040E060
S11308200E94CC000E94EE0382E46C2F0E94CE0250
S113083082E460E040E00E94CC000E94EE038FEC72
S113084097E00197F1F700C00000CF9108958FEF72
S113085091EEA4E081509040A040E1F700C0000078
S113086082E464E041E00E94490082E465E041E002
S11308700E94490082E466E041E00E94490082E46B
S113088067E041E00E94490082E462E041E00E94A6
S1130890490082E461E041E00E94490082E460E0B2
S11308A041E00E94490082E461E040E00E94CC0003
S11308B082E00E940504AFE1BEE41197F1F700C0A5
S11308C0000088E20E9405048FEC97E00197F1F79D
S11308D000C000008EE00E940504AFECB7E0119761
S11308E0F1F700C0000081E00E9405048FE19EE45E
S11308F00197F1F700C0000086E00E940504AFEC08
S1130900B7E01197F1F700C000000895CF93C82F06
S1130910682F62956F7082E40E94CE0282E460E0E8
S113092041E00E94CC000E94EE0382E46C2F0E94FE
S1130930CE0282E460E041E00E94CC000E94EE031B
S11309408FEC97E00197F1F700C00000CF91089574
S1130950CF93DF93EC018881882331F021960E94A4
S1130960860489918823D9F7DF91CF91089581E096
S11309700E9405048FE19EE40197F1F700C0000096
S11309800895282F2150223070F4613170F46623C9
S113099071F0813019F4962F91580AC0823041F4D5
S11309A0962F915405C090E803C090E801C090E8E8
S11309B0892F0E9405048FEC97E00197F1F700C09E
S11309C00000089583B7886083BF8EE48CBF83B72B
S11309D0816083BF83B7846083BF789489B7826062
S11309E089BF0895BB9A83B7886083BF80E48CBFB6
S11309F083B7816083BF83B7846083BF83B780611B
S1130A0083BF0895BB9A83B7806483BF83B788602C
S1130A1083BF8FEF8CBF83B7826083BF83B780624D
S1130A2083BF0895BB9A83B7806483BF80E48CBF7F
S1130A3083B7816083BF83B7846083BF83B78061DA
S1110A4083BF83B7806283BF0895F894FFCF0D
S1130A4E332B3F3D380054696D65204F7665722E09
S1130A5E2E2E210077656C6C20646F6E65005772C4
S1130A6E6F6E6720416E73776572003738392F3495
S10F0A7E35362A3132332D41303D2B0037
S9030000FC
